:100000000C9434000C9446000C9446000C9446006A
:100010000C9446000C9446000C9446000C94460048
:100020000C9446000C9446000C9446000C94460038
:100030000C9446000C9446000C9446000C94460028
:100040000C9446000C9446000C9446000C94460018
:100050000C9446000C9446000C9446000C94460008
:100060000C9446000C94460011241FBECFEFD8E03C
:10007000DEBFCDBF11E0A0E0B1E001C01D92A43011
:10008000B107E1F70E945B000C9484000C9400001F
:1000900007C0EFEFFEE03197F1F700C000000197D5
:1000A0000097B9F708958CE384B915B808958F7354
:1000B000992785B908950E94530080E090E0E12CD3
:1000C000F12C189B04C080E090E0E12CF12C1999F0
:1000D00005C015C08AE090E00E9448001999FACF47
:1000E00081E2E816F10424F48FEFE81AF80A02C05E
:1000F000E12CF12CC701880F991F880F991F9C01D3
:0C0100002F73332725B9DDCFF894FFCF13
:00000001FF
